:100000000C9444010C9475010C9475010C947501C9
:100010000C9475010C9475010C9475010C94750188
:100020000C9475010C9475010C9475010C94750178
:100030000C9475010C9475010C9475010C94750168
:100040000C9475010C948C030C9475010C9475013F
:100050000C9475010C9475010C9475010C94480571
:100060000C9475010C949B080C94D1080C947501A8
:100070000C9475010C9475010C9475010C94750128
:100080000C94BA030C9475010C9475010C947501D1
:100090000C9448090C947E090C9475010C9475011C
:1000A0000C9475010C9475010C94E8030C94750183
:1000B0000C9475010C9475010C9475010C94160444
:1000C0000C9475010C9475010C9475010C947501D8
:1000D0000C9475010C9475010C9475010C947501C8
:1000E0000C9475017D0680066F0673067906B706C7
:1000F000840688068E06920696069C06A006A4062E
:10010000B706AA06AE06B2060C94050A0C9432078E
:100110000C9405090C9496060C94B2070C94920664
:100120000C9440070C9484060C9454070C9480069D
:100130000C94FB080C94B2090C9473060C94A4065E
:100140000C9488060C94A0060C949C060C948E06C5
:100150000C94D4070C947D060C94AE060C94B70650
:100160000C94B2060C9479060C9427070C94A809F9
:100170000C946F060C94AA060C94C30200000A0BA0
:1001800002090C0D0E080703040100000000000026
:10019000000000000000000000000000000000005F
:1001A000000000000000000012111000000000001C
:1001B000000000000000000000000000000000003F
:1001C000000001021020200808102040102040806C
:1001D000020102010804020101020408102040800B
:1001E0008040201008040201800402018040201099
:1001F00008040201080402010102040810204080E2
:1002000001020408102040800505050507050808BF
:100210000808020202020A0A080804040404010190
:1002200001010101010103030303030303030407A5
:1002300007070C0C0C0C0C0C0C0C0202020206063C
:100240000606060606060B0B0B0B0B0B0B0B000032
:100250002200250028002B002E003100340002016E
:100260000000050108010B01000021002400270007
:100270002A002D00300033000101000004010701B5
:100280000A01C3020509B20911241FBECFEFD1E252
:10029000DEBFCDBF00E00CBF12E0A0E0B2E0EEE4B4
:1002A000F9E100E00BBF02C007900D92A037B10743
:1002B000D9F724E0A0E7B2E001C01D92A037B20751
:1002C000E1F712E0C8E8D2E000E006C02297010999
:1002D000FE010BBF0E948D0CC238D10780E00807D9
:1002E000A9F70E94F6090C94A50C0C9400000F933A
:1002F0001F93CF93DF9326E040E052EC61E070E083
:1003000086E393E00E94390826E040E052EC61E089
:1003100070E083ED93E00E943908C9E4D2E004E57F
:1003200012E061E089910E94B80660E0F8018191D5
:100330008F010E94B806F2E0C435DF0791F762E052
:1003400070E083E792E00E940F0563E070E080E7D1
:1003500092E00E940F0560E476E083E792E00E945D
:1003600015056CED75E080E792E00E94150568EBDD
:100370007BE080E090E0DF91CF911F910F910C9492
:10038000B5053F924F925F926F927F928F929F92AC
:10039000AF92BF92CF92DF92EF92FF920F931F9393
:1003A000CF93DF9300D000D0CDB7DEB710927902A3
:1003B0001092780210927F0210927E0209E412E0FD
:1003C00084E5C82E82E0D82E90E8E92E92E0F92E3E
:1003D0002DE1A22E22E0B22E1E821D823CE2832E4F
:1003E00099249394F801308061E0832D0E94B8062F
:1003F000F60171906F0160E0872D0E94B806872D8D
:100400000E943F06F701819391937F01F5012191AD
:100410003191419151915F01BC01882777FD809511
:10042000982F29833A834B835C830E942E0B29816A
:100430003A814B815C810E94E20B2B013C0160916F
:10044000040270910502882777FD8095982F0E94FD
:100450002E0B9B01AC01C301B2010E94DE0B1816EA
:10046000FCF461E0832D0E94F106ED81FE81E95FDD
:10047000FD4F20813181289DC001299D900D389D1F
:10048000900D112490937F0280937E0280917802D8
:10049000909179020196909379028093780205C039
:1004A00060E0F80180810E94F1060F5F1F4F8D818F
:1004B0009E8102969E838D83469709F093CF80910B
:1004C0007E0290917F0260917802709179020E9481
:1004D000510C882777FD8095982F0E942E0B6B0179
:1004E0007C0160937A0270937B0280937C029093EC
:1004F0007D0220E030E048EC54E40E942F0A0E9484
:10050000FB0A4B015C01709377026093760220E056
:1005100030E040E751E4C701B6010E94930A9B0115
:10052000AC0160E070EC86EC94E40E942E0A0E941C
:10053000FB0A7093970260939602B40183E792E0FE
:100540000E941505609196027091970280E792E0F3
:1005500026960FB6F894DEBF0FBECDBFDF91CF91C8
:100560001F910F91FF90EF90DF90CF90BF90AF90D1
:100570009F908F907F906F905F904F903F900C94E2
:1005800015050C94C10183E792E00E94440480E7C2
:1005900092E00C944404CF92DF92EF92FF920F937B
:1005A0001F93CF93DF936C018B017A01EC01C75647
:1005B000DD4F888187FF04C0FB011182108223C0B8
:1005C0002CE02C9DC0012D9D900D11242881AC01A3
:1005D000420F511D27FD5A952091980230E0421795
:1005E00053078CF42881AC01420F511D27FD5A9509
:1005F0009A01FA01EE0FFF1FE20FF31FE356FD4FC2
:10060000208126FD19C088818F5F88838CE08C9DB6
:1006100090018D9D300D11248881A901480F511D35
:1006200087FD5A958091980290E048175907B4F4D5
:1006300088818C303CF112C02881820F911D27FDEA
:100640009A95FC01EE0FFF1FE80FF91FE356FD4FCF
:10065000808160E08F730E94F106D5CFF801808120
:100660009181049680349C4918F480E49CE904C08C
:10067000F801808191810496F701918380838FEF47
:10068000888341C0F801808191814881B901640F5C
:10069000711D47FD7A95AB01FB01EE0FFF1FE40FC3
:1006A000F51FE356FD4F41815281840F951FF701DD
:1006B000918380838881A901480F511D87FD5A9538
:1006C000FA01EE0FFF1FE40FF51FE356FD4F808187
:1006D00086FF19C08881280F311D87FD3A95F901E1
:1006E000EE0FFF1FE20FF31FE356FD4F808161E025
:1006F0008F73DF91CF911F910F91FF90EF90DF905B
:10070000CF900C94F106DF91CF911F910F91FF9044
:10071000EF90DF90CF9008951F920F920FB60F9237
:1007200011240BB60F922F933F934F935F936F93C8
:100730007F938F939F93AF93BF93EF93FF9348E87B
:1007400050E064E870E081E090E00E94CB02FF910D
:10075000EF91BF91AF919F918F917F916F915F9139
:100760004F913F912F910F900BBE0F900FBE0F90A6
:100770001F9018951F920F920FB60F9211240BB66F
:100780000F922F933F934F935F936F937F938F932A
:100790009F93AF93BF93EF93FF9348E950E064E9D1
:1007A00070E082E090E00E94CB02FF91EF91BF9158
:1007B000AF919F918F917F916F915F914F913F91F9
:1007C0002F910F900BBE0F900FBE0F901F9018959A
:1007D0001F920F920FB60F9211240BB60F922F9308
:1007E0003F934F935F936F937F938F939F93AF93B9
:1007F000BF93EF93FF9348EA50E064EA70E083E030
:1008000090E00E94CB02FF91EF91BF91AF919F9139
:100810008F917F916F915F914F913F912F910F90A9
:100820000BBE0F900FBE0F901F9018951F920F9246
:100830000FB60F9211240BB60F922F933F934F9345
:100840005F936F937F938F939F93AF93BF93EF9338
:10085000FF9348E251E064E271E080E090E00E94A2
:10086000CB02FF91EF91BF91AF919F918F917F91BB
:100870006F915F914F913F912F910F900BBE0F9011
:100880000FBE0F901F901895209198022033A0F46E
:1008900031E0320F30939802FC012083822F90E0E8
:1008A000FC01EE0FFF1FE80FF91FE356FD4F88EB29
:1008B0009BE09283818308952FEFFC0120830895AC
:1008C000DF92EF92FF920F931F93CF93DF93EC0190
:1008D000D62E7A0189018881803308F068C061E0F2
:1008E0008D2D0E94B8068881A82FB0E0FD01EE0F83
:1008F000FF1FEA0FFB1FE356FD4F2D2D2F73908135
:10090000907C922B908360E272E06E197F0977FFF2
:1009100002C06D5F7F4F7595679575956795698383
:1009200040E659E0401B510B57FF02C04D5F5F4F3F
:1009300055954795559547954A836CE00E94450C1F
:100940009CE0899FB001112420E030E0A901460F0E
:10095000571FFA01EE0FFF1FE40FF51FE356FD4F7F
:10096000908196FD18C02F5F3F4F2C30310571F7F5
:1009700090E08130910521F51092800082E0809313
:1009800081001092850010928400B19A80916F00CE
:10099000826080936F00888190E0FC01EE0FFF1F62
:1009A000E80FF91FE356FD4F8081806480838881C2
:1009B000DF91CF911F910F91FF90EF90DF900895FD
:1009C0008230910569F41092900082E0809391004A
:1009D000109295001092940088BB80937100DBCF39
:1009E0008330910569F41092A00082E08093A10009
:1009F0001092A5001092A40089BB80937200CBCF07
:100A0000892B49F61092200182E0809321011092F7
:100A10002501109224018ABB80937300BCCF20E68D
:100A200039E040E252E00C946004FC0180818033A4
:100A300070F5918128E830E0291B310997FD339545
:100A4000220F331F220F331F621773077CF092812E
:100A500028E532E0291B310997FD3395220F331F1A
:100A6000220F331F621773070CF49B0122503109C8
:100A7000220F331F4FB7F89490E0FC01EE0FFF1FD9
:100A8000E80FF91FE356FD4F328321834FBF0895CE
:100A90001F920F920FB60F9211242F933F938F93B3
:100AA0009F93AF93BF9380912E0390912F03A091BA
:100AB0003003B091310330912D0323E0230F2D3704
:100AC00020F40196A11DB11D05C026E8230F029652
:100AD000A11DB11D20932D0380932E0390932F030E
:100AE000A0933003B093310380913203909133038C
:100AF000A0913403B09135030196A11DB11D8093DF
:100B0000320390933303A0933403B0933503BF9122
:100B1000AF919F918F913F912F910F900FBE0F90AA
:100B20001F9018953FB7F89480913203909133034A
:100B3000A0913403B091350326B5A89B05C02F3F83
:100B400019F00196A11DB11D3FBF6627782F892F8F
:100B50009A2F620F711D811D911D42E0660F771F54
:100B6000881F991F4A95D1F70895CF92DF92EF928F
:100B7000FF92CF93DF936B017C010E949205EB0102
:100B8000C114D104E104F10489F00E942D0A0E94ED
:100B900092056C1B7D0B683E734090F381E0C81A90
:100BA000D108E108F108C851DC4FEACFDF91CF91BD
:100BB000FF90EF90DF90CF900895789484B5826095
:100BC00084BD84B5816084BD85B5826085BD85B5F1
:100BD000816085BDEEE6F0E0808181608083E1E8A0
:100BE000F0E01082808182608083808181608083D8
:100BF000E0E8F0E0808181608083E1EBF0E08081DB
:100C000084608083E0EBF0E0808181608083E1E9B3
:100C1000F0E0808182608083808181608083E0E970
:100C2000F0E0808181608083E1EAF0E08081826091
:100C30008083808181608083E0EAF0E08081816050
:100C40008083E1E2F1E08081826080838081816045
:100C50008083E0E2F1E0808181608083EAE7F0E078
:100C600080818460808380818260808380818160D4
:100C700080838081806880831092C10008958633CC
:100C800008F0865320917B00982F9870277F922B35
:100C900090937B0087702091060290E4299F900139
:100CA0001124822B80937C0080917A008064809351
:100CB0007A0080917A0086FDFCCF809178002091A7
:100CC000790090E0922B089590E0FC013197E23199
:100CD000F10508F04CC0EE58FF4F0C94870C809142
:100CE00080008F7703C0809180008F7D809380008B
:100CF000089580918000877FF9CF84B58F7702C0F7
:100D000084B58F7D84BD08958091B0008F7703C036
:100D10008091B0008F7D8093B00008958091900005
:100D20008F7707C0809190008F7D03C080919000E5
:100D3000877F8093900008958091A0008F7707C0EF
:100D40008091A0008F7D03C08091A000877F809359
:100D5000A0000895809120018F7707C08091200125
:100D60008F7D03C080912001877F809320010895AB
:100D7000CF93DF9390E0FC01EE53FE4F2491FC01F2
:100D8000E85FFD4F8491882349F190E0880F991F17
:100D9000FC01E859FD4FA591B491825B9D4FFC0188
:100DA000C591D4919FB7611108C0F8948C9120959A
:100DB00082238C93888182230AC0623051F4F89494
:100DC0008C91322F309583238C938881822B88835A
:100DD00004C0F8948C91822B8C939FBFDF91CF91AC
:100DE00008950F931F93CF93DF931F92CDB7DEB774
:100DF000282F30E0F901E458FE4F8491F901EE53B9
:100E0000FE4F1491F901E85FFD4F04910023C9F0F2
:100E1000882321F069830E9464066981E02FF0E055
:100E2000EE0FFF1FE25BFD4FA591B4919FB7F894C1
:100E30008C91611103C01095812301C0812B8C938B
:100E40009FBF0F90DF91CF911F910F910895FC01EB
:100E5000818D228D90E0805C9F4F821B91098F7362
:100E600099270895FC01918D828D981731F0828D1C
:100E7000E80FF11D858D90E008958FEF9FEF0895A5
:100E8000FC01918D828D981761F0828DDF01A80F92
:100E9000B11D5D968C91928D9F5F9F73928F90E0B4
:100EA00008958FEF9FEF08958BEF98E0892B41F025
:100EB00080E090E0892B21F00E94FB08811125C081
:100EC00088EA99E0892B41F080E090E0892B21F0BD
:100ED0000E94A80981111CC080E090E0892B41F09C
:100EE00080E090E0892B21F00E940000811113C066
:100EF00080E090E0892BA1F080E090E0892B81F0E8
:100F00000E94000081110AC008950E940000D8CFFD
:100F10000E940000E1CF0E940000EACF0C94000084
:100F20000895FC01848DDF01A80FB11DA35ABF4FA6
:100F30002C91848D90E001968F739927848FA689D8
:100F4000B7892C93A089B1898C9180648C93938DFF
:100F5000848D981306C00288F389E02D80818F7DEF
:100F600080830895CF93DF93EC01888D8823C9F0A7
:100F7000EA89FB89808185FD05C0A889B9898C91A2
:100F800086FD0FC00FB607FCF5CF808185FFF2CF3D
:100F9000A889B9898C9185FFEDCFCE010E94910778
:100FA000E7CFDF91CF910895CF92DF92FF920F9319
:100FB0001F93CF93DF931F92CDB7DEB76C01DC0197
:100FC0005B969C915B975C968C915C97981307C09D
:100FD0005096ED91FC915197808185FD32C0F601CC
:100FE000038D10E00F5F1F4F0F731127F02EF601D6
:100FF000848DF81211C00FB607FCF9CFD6015096B8
:10100000ED91FC915197808185FFF1CFC6016983F5
:101010000E9491076981EBCF838DE80FF11DE35AA0
:10102000FF4F6083D6015B960C935B975296ED91D0
:10103000FC91539780818062808381E058968C93E5
:101040000DC0D6015696ED91FC915797608350964E
:10105000ED91FC91519780818064808381E090E0E4
:101060000F90DF91CF911F910F91FF90DF90CF9064
:101070000895BF92CF92DF92EF92FF92CF93DF93CA
:10108000EC016A017B01B22EE889F98982E0808354
:10109000411581EE580761057105A1F060E079E026
:1010A0008DE390E0A70196010E94650C2150310963
:1010B000410951095695479537952795211580E1A6
:1010C000380798F0E889F989108260E874E88EE1C1
:1010D00090E0A70196010E94650C21503109410959
:1010E00051095695479537952795EC85FD853083B1
:1010F000EE85FF852083188EEC89FD89B082EA8910
:10110000FB89808180618083EA89FB898081886096
:101110008083EA89FB89808180688083EA89FB89F2
:1011200080818F7D8083DF91CF91FF90EF90DF9062
:10113000CF90BF9008951F920F920FB60F92112477
:101140000BB60F922F938F939F93EF93FF93E091A2
:101150004603F09147038081E0914C03F0914D03E9
:1011600082FD12C0908180914F038F5F8F73209119
:101170005003821751F0E0914F03F0E0EA5CFC4F1E
:10118000958F80934F0301C08081FF91EF919F91D4
:101190008F912F910F900BBE0F900FBE0F901F904D
:1011A00018951F920F920FB60F9211240BB60F9243
:1011B0002F933F934F935F936F937F938F939F935F
:1011C000AF93BF93EF93FF9386E393E00E94910761
:1011D000FF91EF91BF91AF919F918F917F916F910F
:1011E0005F914F913F912F910F900BBE0F900FBECB
:1011F0000F901F90189586E393E00E94270721E047
:10120000892B09F420E0822F08951092390310925F
:10121000380388EE93E0A0E0B0E080933A03909327
:101220003B03A0933C03B0933D0383E692E090938D
:1012300037038093360385EC90E0909343038093CB
:10124000420384EC90E0909345038093440380EC48
:1012500090E0909347038093460381EC90E0909355
:1012600049038093480382EC90E090934B03809372
:101270004A0386EC90E090934D0380934C031092C8
:101280004F0310925003109251031092520308958D
:101290001F920F920FB60F9211240BB60F922F933D
:1012A0008F939F93EF93FF93E091E303F091E40317
:1012B0008081E091E903F091EA0382FD12C0908100
:1012C0008091EC038F5F8F732091ED03821751F0B3
:1012D000E091EC03F0E0ED52FC4F958F8093EC032E
:1012E00001C08081FF91EF919F918F912F910F907D
:1012F0000BBE0F900FBE0F901F9018951F920F926C
:101300000FB60F9211240BB60F922F933F934F936A
:101310005F936F937F938F939F93AF93BF93EF935D
:10132000FF9383ED93E00E949107FF91EF91BF91AE
:10133000AF919F918F917F916F915F914F913F916D
:101340002F910F900BBE0F900FBE0F901F9018950E
:1013500083ED93E00E94270721E0892B09F420E028
:10136000822F08951092D6031092D50388EE93E051
:10137000A0E0B0E08093D7039093D803A093D90363
:10138000B093DA0383E692E09093D4038093D3037F
:101390008DEC90E09093E0038093DF038CEC90E081
:1013A0009093E2038093E10388EC90E09093E40350
:1013B0008093E30389EC90E09093E6038093E50348
:1013C0008AEC90E09093E8038093E7038EEC90E042
:1013D0009093EA038093E9031092EC031092ED03DB
:1013E0001092EE031092EF03089508950E94DD0518
:1013F0000E94F5090E947701C4E5D7E00E94C1026E
:101400002097E1F30E945407F9CFCF92DF92EF9239
:10141000FF920F931F93CF93DF936C017A01EB013F
:10142000E60EF71E00E010E0CE15DF0561F06991D1
:10143000D601ED91FC910190F081E02DC601199546
:10144000080F191FF1CFC801DF91CF911F910F91A4
:10145000FF90EF90DF90CF90089508955058BB27EC
:10146000AA270ED071C162D130F067D120F031F4DB
:101470009F3F11F41EF457C10EF4E095E7FB4DC1F8
:10148000E92F73D180F3BA176207730784079507B2
:1014900018F071F49EF58BC10EF4E0950B2EBA2F67
:1014A000A02D0B01B90190010C01CA01A00111246A
:1014B000FF27591B99F0593F50F4503E68F11A1616
:1014C000F040A22F232F342F4427585FF3CF4695A7
:1014D00037952795A795F0405395C9F77EF41F16C9
:1014E000BA0B620B730B840BBAF09150A1F0FF0F93
:1014F000BB1F661F771F881FC2F70EC0BA0F621F7F
:10150000731F841F48F4879577956795B795F7956E
:101510009E3F08F0B3CF9395880F08F09927EE0F00
:101520009795879508950CD00FC107D140F0FED054
:1015300030F021F45F3F19F0F0C0511139C1F3C010
:1015400014D198F39923C9F35523B1F3951B550B87
:10155000BB27AA2762177307840738F09F5F5F4F86
:10156000220F331F441FAA1FA9F333D00E2E3AF0C7
:10157000E0E830D091505040E695001CCAF729D0E1
:10158000FE2F27D0660F771F881FBB1F2617370730
:101590004807AB07B0E809F0BB0B802DBF01FF2760
:1015A00093585F4F2AF09E3F510568F0B6C000C1C6
:1015B0005F3FECF3983EDCF3869577956795B7959A
:1015C000F7959F5FC9F7880F911D9695879597F9B5
:1015D0000895E1E0660F771F881FBB1F621773072E
:1015E0008407BA0720F0621B730B840BBA0BEE1F43
:1015F00088F7E095089504D06894B111D9C0089592
:10160000BCD088F09F5790F0B92F9927B751A0F020
:10161000D1F0660F771F881F991F1AF0BA95C9F786
:1016200012C0B13081F0C3D0B1E00895C0C0672FBF
:10163000782F8827B85F39F0B93FCCF38695779536
:101640006795B395D9F73EF490958095709561951F
:101650007F4F8F4F9F4F0895E89409C097FB3EF44A
:1016600090958095709561957F4F8F4F9F4F9923EF
:10167000A9F0F92F96E9BB279395F695879577956D
:101680006795B795F111F8CFFAF4BB0F11F460FF2D
:101690001BC06F5F7F4F8F4F9F4F16C0882311F085
:1016A00096E911C0772321F09EE8872F762F05C099
:1016B000662371F096E8862F70E060E02AF09A9534
:1016C000660F771F881FDAF7880F9695879597F929
:1016D0000895990F0008550FAA0BE0E8FEEF1616C3
:1016E0001706E807F907C0F012161306E407F50716
:1016F00098F0621B730B840B950B39F40A2661F08A
:10170000232B242B252B21F408950A2609F4A1402C
:10171000A6958FEF811D811D089597F99F6780E839
:1017200070E060E008959FEF80EC089500240A9433
:101730001616170618060906089500240A941216AC
:101740001306140605060895092E0394000C11F4DF
:10175000882352F0BB0F40F4BF2B11F460FF04C08C
:101760006F5F7F4F8F4F9F4F089557FD9058440FE5
:10177000551F59F05F3F71F04795880F97FB991FF0
:1017800061F09F3F79F087950895121613061406AD
:10179000551FF2CF4695F1DF08C01616170618063A
:1017A000991FF1CF86957105610508940895E89415
:1017B000BB2766277727CB0197F908958ADF08F4BE
:1017C0008FEF08950BD0C0CFB1DF28F0B6DF18F04F
:1017D000952309F0A2CFA7CF1124EACFC6DFA0F34B
:1017E000959FD1F3950F50E0551F629FF001729FB6
:1017F000BB27F00DB11D639FAA27F00DB11DAA1FD5
:10180000649F6627B00DA11D661F829F2227B00D21
:10181000A11D621F739FB00DA11D621F839FA00DAC
:10182000611D221F749F3327A00D611D231F849FFC
:10183000600D211D822F762F6A2F11249F57504053
:101840008AF0E1F088234AF0EE0FFF1FBB1F661FEE
:10185000771F881F91505040A9F79E3F510570F0A7
:101860005CCFA6CF5F3FECF3983EDCF3869577958F
:101870006795B795F795E7959F5FC1F7FE2B880FA2
:10188000911D9695879597F90895991B79E004C065
:10189000991F961708F0961B881F7A95C9F78095AF
:1018A000089597FB072E16F4009407D077FD09D012
:1018B0000E94910C07FC05D03EF4909581959F4FB6
:1018C0000895709561957F4F0895A1E21A2EAA1B85
:1018D000BB1BFD010DC0AA1FBB1FEE1FFF1FA217E0
:1018E000B307E407F50720F0A21BB30BE40BF50BDD
:1018F000661F771F881F991F1A9469F76095709566
:10190000809590959B01AC01BD01CF010895EE0F2C
:10191000FF1F0590F491E02D19940790F691E02DAA
:101920001994AA1BBB1B51E107C0AA1FBB1FA61716
:10193000B70710F0A61BB70B881F991F5A95A9F778
:0E19400080959095BC01CD010895F894FFCFDD
:10194E0001000000F4010101000000000000000091
:10195E000000000000000000000000FFFF000080FB
:10196E003F0000803F0000803F0000803F0000806D
:10197E003F0000803F0000803F0000803F0000805D
:10198E003F0000803F0000803F2324252627282982
:10199E002A2B2C2D3B3C3D3E3F40414243444500CB
:1019AE00000000D407050A270740073207B20700D8
:00000001FF
