:100000000C9480010C94B1010C94B1010C94B101D9
:100010000C94B1010C94B1010C94B1010C94B10198
:100020000C94B1010C94B1010C94B1010C94B10188
:100030000C94B1010C94B1010C94B1010C94B10178
:100040000C94B1010C9413050C94B1010C94B10102
:100050000C94B1010C94B1010C94B1010C943407CF
:100060000C94B1010C946E0B0C94A40B0C94B10184
:100070000C94B1010C94B1010C94B1010C94B10138
:100080000C9441050C94B1010C94B1010C94B10194
:100090000C94B1010C94B1010C94B1010C94B10118
:1000A0000C94B1010C94B1010C946F050C94B10146
:1000B0000C94B1010C94B1010C94B1010C949D0508
:1000C0000C94B1010C94B1010C94B1010C94B101E8
:1000D0000C94B1010C94B1010C94B1010C94B101D8
:1000E0000C94B101120817081C0826083008A9084A
:1000F0003A0842084A0854085E08680877088108E8
:10010000A9088B0895089F08CB08CE08BD08C10830
:10011000C7080509D208D608DC08E008E408EA08A0
:10012000EE08F2080509F808FC0800090C949F087D
:100130000C9477080C94130A0C94270A0C941C084E
:100140000C94F8080C94D2080C94D6080C94A908C6
:100150000C948B080C94E4080C945E080C9405092C
:100160000C9495080C94CE080C94EA080C9417088B
:100170000C94FA090C94C1080C94C7080C9400095B
:100180000C94FC080C94E0080C94BD080C94120824
:100190000C94850A0C9454080C94D80B0C944204CB
:1001A0000C9426080C9430080C943A080C94DC0843
:1001B0000C94F2080C9442080C942B0C0C94050A35
:1001C0000C94CB080C94CE0B0C94A70A0C948108C9
:1001D0000C9468080C944A080C94EE0800000A0B72
:1001E00002090C0D0E0807030401000000000000C6
:1001F00000000000000000000000000000000000FF
:1002000000000000000000001211100000000000BB
:1002100000000000000000000000000000000000DE
:10022000000001021020200808102040102040800B
:1002300002010201080402010102040810204080AA
:100240008040201008040201800402018040201038
:100250000804020108040201010204081020408081
:10026000010204081020408005050505070508085F
:100270000808020202020A0A080804040404010130
:100280000101010101010303030303030303040745
:1002900007070C0C0C0C0C0C0C0C020202020606DC
:1002A0000606060606060B0B0B0B0B0B0B0B0000D2
:1002B00020002300260029002C002F00320000011E
:1002C00000000301060109010000220025002800AA
:1002D0002B002E003100340002010000050108014E
:1002E0000B0100002100240027002A002D0030000F
:1002F000330001010000040107010A014204D80B88
:1003000011241FBECFEFD1E2DEBFCDBF00E00CBF96
:1003100012E0A0E0B2E0E2E1FCE100E00BBF02C0CD
:1003200007900D92AC31B107D9F723E0ACE1B2E010
:1003300001C01D92AD37B207E1F712E0C0E0D3E093
:1003400000E006C022970109FE010BBF0E94F40DD8
:10035000CC3FD10780E00807A9F70E941C0C0C9441
:10036000070E0C94000060E088E00E94060960E03F
:1003700089E00E94060960E08BE00E94060960E0C7
:100380008CE00E94060960E08DE00E94060964E0AE
:1003900070E080E292E00E94960665E070E083E201
:1003A00092E00E94960666E070E086E292E00E948B
:1003B000960667E070E089E292E00E94960626E0E9
:1003C00040E855E260E070E080EE92E00E940C0BA5
:1003D00061E08BE00C943F09AF92BF92CF92DF9225
:1003E000EF92FF920F931F93CF9320E432E44FE0FC
:1003F00050E061E088E00E94750960933C027093D0
:100400003D0280933E0290933F021F921F921F92E3
:10041000C5E0CF931BEFA12EBB24BA94CB2CDB2CD1
:1004200013EAE12E17E0F12E00E010E028EB33E0B4
:1004300040E050E00E943F0D60933C0270933D020B
:1004400080933E0290933F0220E432E44FE050E07C
:1004500061E089E00E947509609338027093390267
:1004600080933A0290933B021F921F921F92CF9368
:100470001CE6E12E17E0F12E00E010E025E733E066
:1004800040E050E00E943F0D6093380270933902C3
:1004900080933A0290933B0220E432E44FE050E034
:1004A00061E08BE00E94750960933402709335021D
:1004B00080933602909337028B019C0107581540B8
:1004C000210931094DB75EB7485F5F4F0FB6F89409
:1004D0005EBF0FBE4DBF073411052105310538F44D
:1004E00081E090E0909341028093400269C08B01CB
:1004F0009C010F55154021093109073911052105C6
:100500003105B0F41F921F921F922DE72F93B3E88D
:10051000AB2EBB24BA94CB2CDB2C1AE3E12E17E0D4
:10052000F12E00E010E02AE134E040E050E03EC06F
:100530008B019C01055D1340210931090B381140E5
:100540002105310598F42FEF2F932F932F9323E854
:100550002F93FCE4AF2EBB24BA94CB2CDB2C1AE1F6
:10056000E12E14E0F12E00E010E01CC08B019C0194
:10057000055F1540210931090E3B11402105310568
:1005800008F0AECF1F921F921F9224EB2F935DE7CE
:10059000A52EB12CC12CD12C12EBE12E17E0F12E9F
:1005A00000E010E025ED33E040E050E00E943F0D18
:1005B00070934102609340020F900F900F900F9044
:1005C00020E432E44FE050E061E08CE00E947509E5
:1005D0006093300270933102809332029093330221
:1005E0001F921F921F9224EB2F93A12CB12C650117
:1005F00014EBE12E17E0F12E00E010E02AED33E0DD
:1006000040E050E00E943F0D609330027093310251
:10061000809332029093330220E432E44FE050E0C2
:1006200061E08DE00E94750960932C0270932D02A9
:1006300080932E0290932F021F921F921F9225E00B
:100640002F933BEFA32EBB24BA94CB2CDB2C10EDC5
:10065000E12E17E0F12E00E010E028EE33E040E05C
:1006600050E00E943F0D60932C0270932D02809306
:100670002E0290932F028DB79EB708960FB6F8946E
:100680009EBF0FBE8DBFCF911F910F91FF90EF9036
:10069000DF90CF90BF90AF9008950E94EC018091C1
:1006A0000A0290910B029C0121503109233B310534
:1006B00058F420913C0230913D02280F391F3093AD
:1006C0000B0220930A020CC0181619061CF081E0D8
:1006D00090E002C083EB90E090930B0280930A02BB
:1006E00080910802909109029C0121503109233B1D
:1006F000310558F42091380230913902280F391F02
:1007000030930902209308020CC0181619061CF039
:1007100081E090E002C083EB90E090930902809327
:10072000080280910402909105029C012150310938
:10073000233B310558F420912C0230912D02280FD3
:10074000391F30930502209304020CC018161906B5
:100750001CF081E090E002C083EB90E090930502F2
:1007600080930402209106023091070280913002AA
:1007700090913102A0913202B0913302A901662713
:1007800057FD6095762F481759076A077B0734F4A1
:100790002F5F3F4F309307022093060220910602FD
:1007A00030910702A901662757FD6095762F8417BF
:1007B0009507A607B70734F4215031093093070293
:1007C00020930602609140027091410216161706AE
:1007D0009CF482E00E94EC0760E070E083E00E94FD
:1007E000EC0760914002709141024AE050E080EED7
:1007F00092E00E94270D0FC060E070E082E00E944E
:10080000EC07609140027091410271956195710908
:1008100083E00E94EC07609106027091070289E272
:1008200092E00E94CF0660910A0270910B0280E272
:1008300092E00E94CF06609108027091090283E263
:1008400092E00E94CF06609104027091050286E258
:1008500092E00C94CF060E947E0760931C02709376
:100860001D0280931E0290931F022AE030E040E0B8
:1008700050E00E94A20D672B682B692B11F40C9499
:100880004D03089589E292E00E94CB0586E292E052
:100890000E94CB0583E292E00E94CB0580E292E0C9
:1008A0000C94CB05CF92DF92EF92FF920F931F93A0
:1008B000CF93DF936C018B017A01EC01CD5BDD4FAF
:1008C000888187FF04C0FB011182108223C02CE0C5
:1008D0002C9DC0012D9D900D11242881AC01420F4B
:1008E000511D27FD5A952091420230E042175307CF
:1008F0008CF42881AC01420F511D27FD5A959A01B5
:10090000FA01EE0FFF1FE20FF31FE95BFD4F20819D
:1009100026FD19C088818F5F88838CE08C9D9001B3
:100920008D9D300D11248881A901480F511D87FD2F
:100930005A958091420290E048175907B4F4888193
:100940008C303CF112C02881820F911D27FD9A95B1
:10095000FC01EE0FFF1FE80FF91FE95BFD4F8081DF
:1009600060E08F730E943F09D5CFF80180819181AB
:10097000049680349C4918F480E49CE904C0F80192
:10098000808191810496F701918380838FEF888322
:1009900041C0F801808191814881B901640F711DC6
:1009A00047FD7A95AB01FB01EE0FFF1FE40FF51F2A
:1009B000E95BFD4F41815281840F951FF7019183BF
:1009C00080838881A901480F511D87FD5A95FA013E
:1009D000EE0FFF1FE40FF51FE95BFD4F808186FFDF
:1009E00019C08881280F311D87FD3A95F901EE0F56
:1009F000FF1FE20FF31FE95BFD4F808161E08F7302
:100A0000DF91CF911F910F91FF90EF90DF90CF90EA
:100A10000C943F09DF91CF911F910F91FF90EF90C0
:100A2000DF90CF9008951F920F920FB60F9211246E
:100A30000BB60F922F933F934F935F936F937F93D8
:100A40008F939F93AF93BF93EF93FF9348E850E04A
:100A500064E870E081E090E00E945204FF91EF9121
:100A6000BF91AF919F918F917F916F915F914F91C6
:100A70003F912F910F900BBE0F900FBE0F901F90C4
:100A800018951F920F920FB60F9211240BB60F926A
:100A90002F933F934F935F936F937F938F939F9386
:100AA000AF93BF93EF93FF9348E950E064E970E0A0
:100AB00082E090E00E945204FF91EF91BF91AF91CC
:100AC0009F918F917F916F915F914F913F912F9166
:100AD0000F900BBE0F900FBE0F901F9018951F9296
:100AE0000F920FB60F9211240BB60F922F933F93D4
:100AF0004F935F936F937F938F939F93AF93BF9326
:100B0000EF93FF9348EA50E064EA70E083E090E0FE
:100B10000E945204FF91EF91BF91AF919F918F91ED
:100B20007F916F915F914F913F912F910F900BBEED
:100B30000F900FBE0F901F9018951F920F920FB637
:100B40000F9211240BB60F922F933F934F935F9305
:100B50006F937F938F939F93AF93BF93EF93FF9385
:100B600048E251E064E271E080E090E00E945204CB
:100B7000FF91EF91BF91AF919F918F917F916F9175
:100B80005F914F913F912F910F900BBE0F900FBE31
:100B90000F901F901895209142022033A0F431E06D
:100BA000320F30934202FC012083822F90E0FC013F
:100BB000EE0FFF1FE80FF91FE95BFD4F88EB9BE08D
:100BC0009283818308952FEFFC0120830895DF92A3
:100BD000EF92FF920F931F93CF93DF93EC01D62EEA
:100BE0007A0189018881803308F068C061E08D2D29
:100BF0000E9406098881A82FB0E0FD01EE0FFF1FBB
:100C0000EA0FFB1FE95BFD4F2D2D2F739081907C28
:100C1000922B908360E272E06E197F0977FF02C029
:100C20006D5F7F4F7595679575956795698340E60C
:100C300059E0401B510B57FF02C04D5F5F4F559568
:100C40004795559547954A836CE00E94960D9CE028
:100C5000899FB001112420E030E0A901460F571F01
:100C6000FA01EE0FFF1FE40FF51FE95BFD4F9081C6
:100C700096FD18C02F5F3F4F2C30310571F790E083
:100C80008130910521F51092800082E080938100EF
:100C90001092850010928400B19A80916F0082605A
:100CA00080936F00888190E0FC01EE0FFF1FE80F3A
:100CB000F91FE95BFD4F8081806480838881DF912B
:100CC000CF911F910F91FF90EF90DF9008958230A8
:100CD000910569F41092900082E080939100109247
:100CE00095001092940088BB80937100DBCF833015
:100CF000910569F41092A00082E08093A100109207
:100D0000A5001092A40089BB80937200CBCF892BE1
:100D100049F61092200182E0809321011092250172
:100D2000109224018ABB80937300BCCF20E639E087
:100D300040E252E00C94E705FC018081803370F5BD
:100D4000918128E830E0291B310997FD3395220F66
:100D5000331F220F331F621773077CF0928128E53F
:100D600032E0291B310997FD3395220F331F220FE3
:100D7000331F621773070CF49B0122503109220FB5
:100D8000331F4FB7F89490E0FC01EE0FFF1FE80F00
:100D9000F91FE95BFD4F328321834FBF08954F92C6
:100DA0005F926F927F92AF92BF92CF92DF92EF925B
:100DB000FF920F931F93CF93DF93EC01603282E099
:100DC00078070CF040C077FD06C0653B71052CF03C
:100DD00064EB70E002C060E070E0898128E830E0F8
:100DE000281B310987FD3395220F331F220F331F34
:100DF0005901CC24B7FCC094DC2C882777FD809562
:100E0000982F2A8148E552E0421B510927FD53954E
:100E1000440F551F440F551F2A01662457FC609448
:100E2000762C7F926F925F924F9214EBE12EF12C11
:100E300000E010E020E030E0A9010E943F0D0F909B
:100E40000F900F900F90CE01DF91CF911F910F91D6
:100E5000FF90EF90DF90CF90BF90AF907F906F901A
:100E60005F904F900C949C061F920F920FB60F92BA
:100E700011242F933F938F939F93AF93BF938091B0
:100E8000D8029091D902A091DA02B091DB023091A0
:100E9000D70223E0230F2D3720F40196A11DB11DA9
:100EA00005C026E8230F0296A11DB11D2093D7028D
:100EB0008093D8029093D902A093DA02B093DB0218
:100EC0008091DC029091DD02A091DE02B091DF0200
:100ED0000196A11DB11D8093DC029093DD02A093C9
:100EE000DE02B093DF02BF91AF919F918F913F914E
:100EF0002F910F900FBE0F901F9018952FB7F89459
:100F00006091D8027091D9028091DA029091DB024F
:100F10002FBF0895789484B5826084BD84B58160C4
:100F200084BD85B5826085BD85B5816085BDEEE6F1
:100F3000F0E0808181608083E1E8F0E010828081D0
:100F400082608083808181608083E0E8F0E080813E
:100F500081608083E1EBF0E0808184608083E0EB5E
:100F6000F0E0808181608083E1E9F0E0808182604F
:100F70008083808181608083E0E9F0E0808181600E
:100F80008083E1EAF0E080818260808380818160FB
:100F90008083E0EAF0E0808181608083E1E2F1E03B
:100FA000808182608083808181608083E0E2F1E0E3
:100FB000808181608083EAE7F0E0808184608083C3
:100FC000808182608083808181608083808180686D
:100FD00080831092C10008951F93CF93DF93182F41
:100FE000EB0161E00E940609209711F460E004C063
:100FF000CF3FD10539F461E0812FDF91CF911F916F
:101000000C943F09E12FF0E0E452FE4F449150E090
:10101000FA013197E231F10508F09BC0EE58FF4F1D
:101020000C94E30D84B5806884BDC7BD97C084B5BA
:10103000806284BDC8BD92C080918000806880932A
:101040008000D0938900C093880088C08091800080
:10105000806280938000D0938B00C0938A007EC012
:1010600080918000886080938000D0938D00C09331
:101070008C0074C08091B00080688093B000C093F1
:10108000B3006CC08091B00080628093B000C093C8
:10109000B40064C080919000806880939000D093E9
:1010A0009900C09398005AC080919000806280930C
:1010B0009000D0939B00C0939A0050C08091900004
:1010C000886080939000D0939D00C0939C0046C0A0
:1010D0008091A00080688093A0008091A0008F7B09
:1010E0008093A000D093A900C093A80037C080913E
:1010F000A00080628093A000D093AB00C093AA00B0
:101100002DC08091A00088608093A000D093AD0096
:10111000C093AC0023C0809120018068809320019F
:10112000D0932901C093280119C0809120018062C9
:1011300080932001D0932B01C0932A010FC080918E
:101140002001886080932001D0932D01C0932C0151
:1011500005C0C038D1050CF04ECF48CFDF91CF91FC
:101160001F91089590E0FC013197E231F10508F0FC
:101170004CC0EC57FF4F0C94E30D809180008F77AB
:1011800003C0809180008F7D8093800008958091BE
:101190008000877FF9CF84B58F7702C084B58F7DBB
:1011A00084BD08958091B0008F7703C08091B00016
:1011B0008F7D8093B0000895809190008F7707C055
:1011C000809190008F7D03C080919000877F8093F5
:1011D000900008958091A0008F7707C08091A000B3
:1011E0008F7D03C08091A000877F8093A000089529
:1011F000809120018F7707C0809120018F7D03C0EF
:1012000080912001877F809320010895CF93DF9301
:1012100090E0FC01EE5DFD4F2491FC01E859FD4F8B
:101220008491882349F190E0880F991FFC01EE51C9
:10123000FD4FA591B49188539D4FFC01C591D49168
:101240009FB7611108C0F8948C91209582238C93EC
:10125000888182230AC0623051F4F8948C91322F35
:10126000309583238C938881822B888304C0F894E3
:101270008C91822B8C939FBFDF91CF9108950F9318
:101280001F93CF93DF931F92CDB7DEB7282F30E0A7
:10129000F901E452FE4F8491F901EE5DFD4F149186
:1012A000F901E859FD4F04910023C9F0882321F08A
:1012B00069830E94B2086981E02FF0E0EE0FFF1F02
:1012C000E853FD4FA591B4919FB7F8948C916111AB
:1012D00003C01095812301C0812B8C939FBF0F9079
:1012E000DF91CF911F910F910895CF92DF92EF92EE
:1012F000FF920F931F93CF93DF9390E0FC01EE5D7D
:10130000FD4FD491FC01E859FD4F7491611102C069
:10131000C0E001C0CD2FDA01C901BF70672F70E0B6
:10132000660F771F62557D4F00E010E09801FB01CA
:10133000E590F490F70140814D234C131EC06801E5
:1013400079014FEFC41AD40AE40AF40A08171907FE
:101350002A073B0709F442C097018601E8CF6801DC
:101360007901FFEFCF1ADF0AEF0AFF0A0817190702
:101370002A073B0799F197018601FB01E590F4905C
:10138000F70140814D234C13EACF801B910BA20B38
:10139000B30B20E030E0A901FB01E590F490F701E8
:1013A000F080FD22FC120AC0281739074A075B07A4
:1013B000A9F02F5F3F4F4F4F5F4FEECFA8E1B0E056
:1013C0000E94E90D605F7F4F8F4F9F4F24E09695FD
:1013D0008795779567952A95D1F703C060E070E00F
:1013E000CB01DF91CF911F910F91FF90EF90DF9094
:1013F000CF900895FC01818D228D90E0805C9F4FFD
:10140000821B91098F7399270895FC01918D828D1C
:10141000981731F0828DE80FF11D858D90E00895C9
:101420008FEF9FEF0895FC01918D828D981761F0E9
:10143000828DDF01A80FB11D5D968C91928D9F5F0B
:101440009F73928F90E008958FEF9FEF08958EEC39
:101450009BE0892B41F080E090E0892B21F00E94F5
:10146000CE0B811125C080E090E0892B41F080E017
:1014700090E0892B21F00E94000081111CC080E0C7
:1014800090E0892B41F080E090E0892B21F00E94D0
:101490000000811113C080E090E0892BA1F080E072
:1014A00090E0892B81F00E94000081110AC008950C
:1014B0000E940000D8CF0E940000E1CF0E940000EF
:1014C000EACF0C9400000895FC01848DDF01A80F81
:1014D000B11DA35ABF4F2C91848D90E001968F735C
:1014E0009927848FA689B7892C93A089B1898C917B
:1014F00080648C93938D848D981306C00288F38941
:10150000E02D80818F7D80830895CF93DF93EC0160
:10151000888D8823C9F0EA89FB89808185FD05C013
:10152000A889B9898C9186FD0FC00FB607FCF5CF4D
:10153000808185FFF2CFA889B9898C9185FFEDCF95
:10154000CE010E94640AE7CFDF91CF910895CF9238
:10155000DF92FF920F931F93CF93DF931F92CDB72C
:10156000DEB76C01DC015B969C915B975C968C917D
:101570005C97981307C05096ED91FC91519780812C
:1015800085FD32C0F601038D10E00F5F1F4F0F7312
:101590001127F02EF601848DF81211C00FB607FC4A
:1015A000F9CFD6015096ED91FC915197808185FF3E
:1015B000F1CFC60169830E94640A6981EBCF838DF4
:1015C000E80FF11DE35AFF4F6083D6015B960C9341
:1015D0005B975296ED91FC91539780818062808356
:1015E00081E058968C930DC0D6015696ED91FC91F2
:1015F000579760835096ED91FC915197808180645C
:10160000808381E090E00F90DF91CF911F910F9147
:10161000FF90DF90CF900895BF92CF92DF92EF922C
:10162000FF92CF93DF93EC016A017B01B22EE88930
:10163000F98982E08083411581EE580761057105C3
:10164000A1F060E079E08DE390E0A70196010E94AF
:10165000A20D2150310941095109569547953795F9
:101660002795211580E1380798F0E889F9891082DB
:1016700060E874E88EE190E0A70196010E94A20D57
:1016800021503109410951095695479537952795BC
:10169000EC85FD853083EE85FF852083188EEC89EF
:1016A000FD89B082EA89FB89808180618083EA8933
:1016B000FB89808188608083EA89FB8980818068DA
:1016C0008083EA89FB8980818F7D8083DF91CF9140
:1016D000FF90EF90DF90CF90BF9008951F920F92F0
:1016E0000FB60F9211240BB60F922F938F939F93E7
:1016F000EF93FF93E091F002F091F1028081E0918D
:10170000F602F091F70282FD12C090818091F902F9
:101710008F5F8F732091FA02821751F0E091F902E6
:10172000F0E0E052FD4F958F8093F90201C0808177
:10173000FF91EF919F918F912F910F900BBE0F9082
:101740000FBE0F901F9018951F920F920FB60F9219
:1017500011240BB60F922F933F934F935F936F9388
:101760007F938F939F93AF93BF93EF93FF9380EEFD
:1017700092E00E94640AFF91EF91BF91AF919F9117
:101780008F917F916F915F914F913F912F910F902A
:101790000BBE0F900FBE0F901F90189580EE92E039
:1017A0000E94FA0921E0892B09F420E0822F089594
:1017B0001092E3021092E20288EE93E0A0E0B0E023
:1017C0008093E4029093E502A093E602B093E702CF
:1017D00080E192E09093E1028093E00285EC90E05A
:1017E0009093ED028093EC0284EC90E09093EF02F2
:1017F0008093EE0280EC90E09093F1028093F002EF
:1018000081EC90E09093F3028093F20282EC90E0FE
:101810009093F5028093F40286EC90E09093F702A7
:101820008093F6021092F9021092FA021092FB02D3
:101830001092FC02089508950E948A070E941B0CD2
:101840000E94B301C7E2DAE00E942B042097E1F383
:101850000E94270AF9CFCF92DF92EF92FF920F9367
:101860001F93CF93DF936C017A01EB01E60EF71E15
:1018700000E010E0CE15DF0561F06991D601ED9131
:10188000FC910190F081E02DC6011995080F191FF8
:10189000F1CFC801DF91CF911F910F91FF90EF9091
:1018A000DF90CF9008956115710581F0DB010D90F7
:1018B0000020E9F7AD0141505109461B570BDC01EF
:1018C000ED91FC910280F381E02D199480E090E08D
:1018D0000895DC01ED91FC910190F081E02D1994C7
:1018E0000F931F93CF93DF93EC016DE00E94690C7F
:1018F0008C016AE0CE010E94690C800F911FDF917C
:10190000CF911F910F9108958F929F92AF92BF92A6
:10191000CF92DF92EF92FF920F931F93CF93DF93BB
:10192000CDB7DEB7A1970FB6F894DEBF0FBECDBF1F
:101930007C01C42EE52FCB01D22E19A221E02D155A
:1019400010F02AE0D22E8E010F5D1F4F8D2C912CAE
:10195000A12CB12C6C2D7E2FA50194010E94A20D0B
:101960008C2DD29E80191124015011098A3014F453
:10197000805D01C0895CF801808321153105410536
:10198000510521F0C22EE32FCA01E4CFB801C701EF
:101990000E94530CA1960FB6F894DEBF0FBECDBFC8
:1019A000DF91CF911F910F91FF90EF90DF90CF903B
:1019B000BF90AF909F908F900895CF92DF92EF925B
:1019C000FF920F931F93CF93DF93EC016A017B018A
:1019D0002115310579F4E881F9810190F081E02D3C
:1019E000642FDF91CF911F910F91FF90EF90DF90C7
:1019F000CF9019942A303105E9F477FF1AC06DE2CF
:101A00000E94690C8C0144275527BA014C195D09C5
:101A10006E097F092AE0CE010E94840C800F911F7D
:101A2000DF91CF911F910F91FF90EF90DF90CF90BA
:101A300008952AE0B701A601CE01DF91CF911F9151
:101A40000F91FF90EF90DF90CF900C94840C0F9348
:101A50001F93CF93DF93EC019A01AB01662757FDEB
:101A60006095762F0E94DD0C8C01CE010E94700CD7
:101A7000800F911FDF91CF911F910F9108954F9289
:101A80005F926F927F92AF92BF92CF92DF92EF926E
:101A9000FF920F931F93CF93DF93CDB7DEB729014A
:101AA0003A01621B730B840B950B2A893B894C8985
:101AB0005D892A193B094C095D092A8B3B8B4C8BAC
:101AC0005D8B9B01AC016A897B898C899D890E9411
:101AD000860DE418F50806091709A80197010E9468
:101AE000C40D2A0D3B1D4C1D5D1DCA01B901DF91BE
:101AF000CF911F910F91FF90EF90DF90CF90BF900B
:101B0000AF907F906F905F904F900895DB018F931F
:101B10009F930E94E90DBF91AF91A29F800D911DEF
:101B2000A39F900DB29F900D11240895991B79E009
:101B300004C0991F961708F0961B881F7A95C9F75D
:101B400080950895A1E21A2EAA1BBB1BFD010DC0B2
:101B5000AA1FBB1FEE1FFF1FA217B307E407F5075D
:101B600020F0A21BB30BE40BF50B661F771F881F39
:101B7000991F1A9469F760957095809590959B01CF
:101B8000AC01BD01CF010895052E97FB1EF4009412
:101B90000E94DB0D57FD07D00E94A20D07FC03D069
:101BA0004EF40C94DB0D50954095309521953F4FA8
:101BB0004F4F5F4F089590958095709561957F4F39
:101BC0008F4F9F4F0895EE0FFF1F0590F491E02D6A
:101BD00019940E94F80DA59F900DB49F900DA49F9D
:101BE000800D911D112408950790F691E02D199410
:101BF000A29FB001B39FC001A39F700D811D11244E
:101C0000911DB29F700D811D1124911D0895F894AE
:021C1000FFCF04
:101C1200010000005A005A005A005A000000000059
:0C1C2200A70A2B0CFA09130A050A850A10
:00000001FF
