:100000000C9480010C94B1010C94B1010C94B101D9
:100010000C94B1010C94B1010C94B1010C94B10198
:100020000C94B1010C94B1010C94B1010C94B10188
:100030000C94B1010C94B1010C94B1010C94B10178
:100040000C94B1010C948A040C94B1010C94B1018C
:100050000C94B1010C94B1010C94B1010C94AB0659
:100060000C94B1010C94240B0C945A0B0C94B10118
:100070000C94B1010C94B1010C94B1010C94B10138
:100080000C94B8040C94B1010C94B1010C94B1011E
:100090000C94B1010C94B1010C94B1010C94B10118
:1000A0000C94B1010C94B1010C94E6040C94B101D0
:1000B0000C94B1010C94B1010C94B1010C94140591
:1000C0000C94B1010C94B1010C94B1010C94B101E8
:1000D0000C94B1010C94B1010C94B1010C94B101D8
:1000E0000C94B101C807CD07D207DC07E6075F080B
:1000F000F007F80700080A0814081E082D0837083A
:100100005F0841084B085508810884087308770880
:100110007D08BB0888088C08920896089A08A008F1
:10012000A408A808BB08AE08B208B6080C949A0840
:100130000C942D080C943B0A0C941E080C945D0A38
:100140000C9455080C94B9030C945F080C94D207D6
:100150000C940A080C94B2080C94E10B0C94840BD8
:100160000C94E6070C9473080C94BB080C94DD09FE
:100170000C9441080C9484080C9477080C94F007B4
:100180000C9414080C94DC070C947D080C948108E2
:100190000C94B0090C9400080C94CD070C94A8089A
:1001A0000C94AE080C94BB090C94A4080C94C807DA
:1001B0000C94C9090C948C080C9488080C94F807CA
:1001C0000C944B080C94A0080C94B6080C9492085C
:1001D0000C948E0B0C9437080C94960800000A0BB4
:1001E00002090C0D0E0807030401000000000000C6
:1001F00000000000000000000000000000000000FF
:1002000000000000000000001211100000000000BB
:1002100000000000000000000000000000000000DE
:10022000000001021020200808102040102040800B
:1002300002010201080402010102040810204080AA
:100240008040201008040201800402018040201038
:100250000804020108040201010204081020408081
:10026000010204081020408005050505070508085F
:100270000808020202020A0A080804040404010130
:100280000101010101010303030303030303040745
:1002900007070C0C0C0C0C0C0C0C020202020606DC
:1002A0000606060606060B0B0B0B0B0B0B0B0000D2
:1002B00020002300260029002C002F00320000011E
:1002C00000000301060109010000220025002800AA
:1002D0002B002E003100340002010000050108014E
:1002E0000B0100002100240027002A002D0030000F
:1002F000330001010000040107010A01B9038E0B5C
:1003000011241FBECFEFD1E2DEBFCDBF00E00CBF96
:1003100012E0A0E0B2E0E4E7FBE100E00BBF02C0C6
:1003200007900D92AC31B107D9F723E0ACE1B2E010
:1003300001C01D92A937B207E1F712E0C0E0D3E097
:1003400000E006C022970109FE010BBF0E94A50D27
:10035000CC3FD10780E00807A9F70E94D20B0C948C
:10036000B80D0C94000060E088E00E94BC0860E0DA
:1003700089E00E94BC0860E08AE00E94BC0860E05E
:100380008BE00E94BC0860E08CE00E94BC0864E046
:1003900070E08CE192E00E940D0665E070E08FE174
:1003A00092E00E940D0666E070E082E292E00E9418
:1003B0000D0667E070E085E292E00E940D0626E0FF
:1003C00040E855E260E070E08CED92E00E94C20AE5
:1003D00061E08BE00C94F508AF92BF92CF92DF9270
:1003E000EF92FF920F931F93CF9320E432E44FE0FC
:1003F00050E061E088E00E942B096093380270931E
:10040000390280933A0290933B021F921F921F92EF
:10041000C5E0CF932BEFA22EBB24BA94CB2CDB2CC0
:1004200013EAE12E17E0F12E00E010E028EB33E0B4
:1004300040E050E00E94EF0C609338027093390264
:1004400080933A0290933B0220E432E44FE050E084
:1004500061E089E00E942B096093340270933502B9
:1004600080933602909337021F921F921F92CF9370
:100470001CE6E12E17E0F12E00E010E025E733E066
:1004800040E050E00E94EF0C60933402709335021C
:10049000809336029093370220E432E44FE050E03C
:1004A00061E08AE00E942B09609330027093310270
:1004B00080933202909333021F921F921F92CF9328
:1004C0001FEAE12E17E0F12E00E010E028EB33E008
:1004D00040E050E00E94EF0C6093300270933102D4
:1004E000809332029093330220E432E44FE050E0F4
:1004F00061E08BE00E942B09AB01BC0140932C0210
:1005000050932D0260932E0270932F022AE030E068
:100510008CED92E00E94DD0C60912C0270912D0216
:1005200080912E0290912F021F921F921F9222E81B
:100530002F93EEE7AE2EBB24BA94CB2CDB2C14E920
:10054000E12E17E0F12E00E010E025ED33E040E071
:1005500050E00E94EF0C70933D0260933C0220E457
:1005600032E44FE050E061E08CE00E942B096093A0
:1005700028027093290280932A0290932B021F92E3
:100580001F921F9224EB2F93A12CB12C650114EB29
:10059000E12E17E0F12E00E010E02AED33E040E01C
:1005A00050E00E94EF0C6093280270932902809320
:1005B0002A0290932B0220910A0230910B02A9018A
:1005C00041505109EDB7FEB774960FB6F894FEBFCF
:1005D0000FBEEDBF433B510558F440913802509196
:1005E0003902420F531F50930B0240930A020CC072
:1005F000121613061CF021E030E002C023EB30E0BD
:1006000030930B0220930A022091080230910902D4
:10061000A90141505109433B510558F4409134021E
:1006200050913502420F531F509309024093080224
:100630000CC0121613061CF021E030E002C023EBC0
:1006400030E0309309022093080220910602309195
:100650000702A90141505109433B510558F440910B
:10066000300250913102420F531F509307024093C2
:1006700006020CC0121613061CF021E030E002C086
:1006800023EB30E0309307022093060240910402EE
:10069000509105028A01222717FD2095322F061757
:1006A00017072807390734F44D5F5F4F5093050251
:1006B0004093040240910402509105028A012227CE
:1006C00017FD2095322F601771078207930734F4C6
:1006D00043505109509305024093040260913C023B
:1006E00070913D021616170634F482E00E94A207AC
:1006F00060E070E00CC060E070E082E00E94A20761
:1007000060913C0270913D0271956195710983E0A1
:100710000E94A207609104027091050285E292E0B6
:100720000E94460660910A0270910B028CE192E0F1
:100730000E94460660910802709109028FE192E0E2
:100740000E944606609106027091070282E292E0E2
:100750000E94460669E170E080E090E0CF911F9131
:100760000F91FF90EF90DF90CF90BF90AF900C94DF
:10077000180785E292E00E94420582E292E00E9420
:1007800042058FE192E00E9442058CE192E00C94D8
:100790004205CF92DF92EF92FF920F931F93CF9378
:1007A000DF936C018B017A01EC01C15CDD4F888124
:1007B00087FF04C0FB011182108223C02CE02C9D16
:1007C000C0012D9D900D11242881AC01420F511DB7
:1007D00027FD5A9520913E0230E0421753078CF4D2
:1007E0002881AC01420F511D27FD5A959A01FA014B
:1007F000EE0FFF1FE20FF31FED5BFD4F208126FD83
:1008000019C088818F5F88838CE08C9D90018D9DBD
:10081000300D11248881A901480F511D87FD5A957B
:1008200080913E0290E048175907B4F488818C30DB
:100830003CF112C02881820F911D27FD9A95FC0181
:10084000EE0FFF1FE80FF91FED5BFD4F808160E0A9
:100850008F730E94F508D5CFF801808191810496AD
:1008600080349C4918F480E49CE904C0F80180813C
:1008700091810496F701918380838FEF888341C033
:10088000F801808191814881B901640F711D47FD94
:100890007A95AB01FB01EE0FFF1FE40FF51FED5B37
:1008A000FD4F41815281840F951FF7019183808311
:1008B0008881A901480F511D87FD5A95FA01EE0F55
:1008C000FF1FE40FF51FED5BFD4F808186FF19C010
:1008D0008881280F311D87FD3A95F901EE0FFF1F22
:1008E000E20FF31FED5BFD4F808161E08F73DF91BD
:1008F000CF911F910F91FF90EF90DF90CF900C94CC
:10090000F508DF91CF911F910F91FF90EF90DF904D
:10091000CF9008951F920F920FB60F9211240BB62D
:100920000F922F933F934F935F936F937F938F9388
:100930009F93AF93BF93EF93FF9348E850E064E831
:1009400070E081E090E00E94C903FF91EF91BF91B8
:10095000AF919F918F917F916F915F914F913F9157
:100960002F910F900BBE0F900FBE0F901F901895F8
:100970001F920F920FB60F9211240BB60F922F9366
:100980003F934F935F936F937F938F939F93AF9317
:10099000BF93EF93FF9348E950E064E970E082E091
:1009A00090E00E94C903FF91EF91BF91AF919F9199
:1009B0008F917F916F915F914F913F912F910F9008
:1009C0000BBE0F900FBE0F901F9018951F920F92A5
:1009D0000FB60F9211240BB60F922F933F934F93A4
:1009E0005F936F937F938F939F93AF93BF93EF9397
:1009F000FF9348EA50E064EA70E083E090E00E94F0
:100A0000C903FF91EF91BF91AF919F918F917F911A
:100A10006F915F914F913F912F910F900BBE0F906F
:100A20000FBE0F901F9018951F920F920FB60F9246
:100A300011240BB60F922F933F934F935F936F93B5
:100A40007F938F939F93AF93BF93EF93FF9348E26E
:100A500051E064E271E080E090E00E94C903FF9100
:100A6000EF91BF91AF919F918F917F916F915F9126
:100A70004F913F912F910F900BBE0F900FBE0F9093
:100A80001F90189520913E022033A0F431E0320FE0
:100A900030933E02FC012083822F90E0FC01EE0F98
:100AA000FF1FE80FF91FED5BFD4F88EB9BE0928382
:100AB000818308952FEFFC0120830895DF92EF9248
:100AC000FF920F931F93CF93DF93EC01D62E7A0101
:100AD00089018881803308F068C061E08D2D0E9413
:100AE000BC088881A82FB0E0FD01EE0FFF1FEA0FC0
:100AF000FB1FED5BFD4F2D2D2F739081907C922B72
:100B0000908360E272E06E197F0977FF02C06D5F2B
:100B10007F4F7595679575956795698340E659E0B0
:100B2000401B510B57FF02C04D5F5F4F55954795D6
:100B3000559547954A836CE00E94470D9CE0899F3C
:100B4000B001112420E030E0A901460F571FFA013F
:100B5000EE0FFF1FE40FF51FED5BFD4F908196FD3B
:100B600018C02F5F3F4F2C30310571F790E0813076
:100B7000910521F51092800082E08093810010920F
:100B8000850010928400B19A80916F0082608093FA
:100B90006F00888190E0FC01EE0FFF1FE80FF91F46
:100BA000ED5BFD4F8081806480838881DF91CF91F0
:100BB0001F910F91FF90EF90DF9008958230910583
:100BC00069F41092900082E0809391001092950059
:100BD0001092940088BB80937100DBCF8330910525
:100BE00069F41092A00082E08093A1001092A50009
:100BF0001092A40089BB80937200CBCF892B49F659
:100C00001092200182E08093210110922501109220
:100C100024018ABB80937300BCCF20E639E040E218
:100C200052E00C945E05FC018081803370F5918167
:100C300028E830E0291B310997FD3395220F331F37
:100C4000220F331F621773077CF0928128E532E090
:100C5000291B310997FD3395220F331F220F331FB4
:100C6000621773070CF49B0122503109220F331FC6
:100C70004FB7F89490E0FC01EE0FFF1FE80FF91F4B
:100C8000ED5BFD4F328321834FBF08954F925F92FA
:100C90006F927F92AF92BF92CF92DF92EF92FF92CC
:100CA0000F931F93CF93DF93EC01603282E07807BC
:100CB0000CF040C077FD06C0653B71052CF064EB7D
:100CC00070E002C060E070E0898128E830E0281B15
:100CD000310987FD3395220F331F220F331F59012E
:100CE000CC24B7FCC094DC2C882777FD8095982F06
:100CF0002A8148E552E0421B510927FD5395440FD4
:100D0000551F440F551F2A01662457FC6094762C0A
:100D10007F926F925F924F9214EBE12EF12C00E0E4
:100D200010E020E030E0A9010E94EF0C0F900F903E
:100D30000F900F90CE01DF91CF911F910F91FF90F7
:100D4000EF90DF90CF90BF90AF907F906F905F90CB
:100D50004F900C9413061F920F920FB60F9211240E
:100D60002F933F938F939F93AF93BF938091D40220
:100D70009091D502A091D602B091D7023091D302C2
:100D800023E0230F2D3720F40196A11DB11D05C0CE
:100D900026E8230F0296A11DB11D2093D302809354
:100DA000D4029093D502A093D602B093D70280913B
:100DB000D8029091D902A091DA02B091DB0201969B
:100DC000A11DB11D8093D8029093D902A093DA029D
:100DD000B093DB02BF91AF919F918F913F912F9183
:100DE0000F900FBE0F901F9018953FB7F894809109
:100DF000D8029091D902A091DA02B091DB0226B517
:100E0000A89B05C02F3F19F00196A11DB11D3FBF42
:100E10006627782F892F9A2F620F711D811D911DD2
:100E200042E0660F771F881F991F4A95D1F70895F2
:100E3000CF92DF92EF92FF92CF93DF936B017C0111
:100E40000E94F506EB01C114D104E104F10489F01C
:100E50000E94360D0E94F5066C1B7D0B683E7340A8
:100E600090F381E0C81AD108E108F108C851DC4FBD
:100E7000EACFDF91CF91FF90EF90DF90CF90089570
:100E8000789484B5826084BD84B5816084BD85B565
:100E9000826085BD85B5816085BDEEE6F0E080812C
:100EA00081608083E1E8F0E010828081826080834D
:100EB000808181608083E0E8F0E0808181608083D0
:100EC000E1EBF0E0808184608083E0EBF0E0808102
:100ED00081608083E1E9F0E08081826080838081AD
:100EE00081608083E0E9F0E0808181608083E1EAD5
:100EF000F0E0808182608083808181608083E0EA8D
:100F0000F0E0808181608083E1E2F1E080818260B5
:100F10008083808181608083E0E2F1E08081816074
:100F20008083EAE7F0E08081846080838081826052
:100F3000808380818160808380818068808310923B
:100F4000C10008951F93CF93DF93182FEB0161E049
:100F50000E94BC08209711F460E004C0CF3FD10587
:100F600039F461E0812FDF91CF911F910C94F50846
:100F7000E12FF0E0E452FE4F449150E0FA01319746
:100F8000E231F10508F09BC0EE58FF4F0C94940D30
:100F900084B5806884BDC7BD97C084B5806284BDB8
:100FA000C8BD92C080918000806880938000D093FB
:100FB0008900C093880088C08091800080628093FF
:100FC0008000D0938B00C0938A007EC08091800007
:100FD000886080938000D0938D00C0938C0074C093
:100FE0008091B00080688093B000C093B3006CC063
:100FF0008091B00080628093B000C093B40064C060
:1010000080919000806880939000D0939900C09365
:1010100098005AC080919000806280939000D09395
:101020009B00C0939A0050C080919000886080938C
:101030009000D0939D00C0939C0046C08091A0007A
:1010400080688093A0008091A0008F7B8093A00097
:10105000D093A900C093A80037C08091A0008062FF
:101060008093A000D093AB00C093AA002DC08091C4
:10107000A00088608093A000D093AD00C093AC0026
:1010800023C080912001806880932001D0932901A2
:10109000C093280119C080912001806280932001B3
:1010A000D0932B01C0932A010FC08091200188604A
:1010B00080932001D0932D01C0932C0105C0C0382E
:1010C000D1050CF04ECF48CFDF91CF911F910895FD
:1010D00090E0FC013197E231F10508F04CC0EC578B
:1010E000FF4F0C94940D809180008F7703C0809106
:1010F00080008F7D80938000089580918000877F9D
:10110000F9CF84B58F7702C084B58F7D84BD0895F3
:101110008091B0008F7703C08091B0008F7D809365
:10112000B0000895809190008F7707C08091900063
:101130008F7D03C080919000877F809390000895F9
:101140008091A0008F7707C08091A0008F7D03C0A1
:101150008091A000877F8093A00008958091200156
:101160008F7707C0809120018F7D03C0809120017F
:10117000877F809320010895CF93DF9390E0FC0157
:10118000EE5DFD4F2491FC01E859FD4F84918823C9
:1011900049F190E0880F991FFC01EE51FD4FA59198
:1011A000B49188539D4FFC01C591D4919FB76111B3
:1011B00008C0F8948C91209582238C938881822397
:1011C0000AC0623051F4F8948C91322F3095832309
:1011D0008C938881822B888304C0F8948C91822B15
:1011E0008C939FBFDF91CF9108950F931F93CF935F
:1011F000DF931F92CDB7DEB7282F30E0F901E4521C
:10120000FE4F8491F901EE5DFD4F1491F901E8590B
:10121000FD4F04910023C9F0882321F069830E94C7
:1012200068086981E02FF0E0EE0FFF1FE853FD4FE3
:10123000A591B4919FB7F8948C91611103C010955A
:10124000812301C0812B8C939FBF0F90DF91CF91A1
:101250001F910F910895CF92DF92EF92FF920F931B
:101260001F93CF93DF9390E0FC01EE5DFD4FD4918F
:10127000FC01E859FD4F7491611102C0C0E001C04A
:10128000CD2FDA01C901BF70672F70E0660F771F9D
:1012900062557D4F00E010E09801FB01E590F4906D
:1012A000F70140814D234C131EC0680179014FEFB7
:1012B000C41AD40AE40AF40A081719072A073B07D4
:1012C00009F442C097018601E8CF68017901FFEF78
:1012D000CF1ADF0AEF0AFF0A081719072A073B0788
:1012E00099F197018601FB01E590F490F7014081A7
:1012F0004D234C13EACF801B910BA20BB30B20E0C4
:1013000030E0A901FB01E590F490F701F080FD22A7
:10131000FC120AC0281739074A075B07A9F02F5F9C
:101320003F4F4F4F5F4FEECFA8E1B0E00E949A0DC4
:10133000605F7F4F8F4F9F4F24E0969587957795FD
:1013400067952A95D1F703C060E070E0CB01DF918B
:10135000CF911F910F91FF90EF90DF90CF90089564
:10136000FC01818D228D90E0805C9F4F821B910952
:101370008F7399270895FC01918D828D981731F014
:10138000828DE80FF11D858D90E008958FEF9FEF1E
:101390000895FC01918D828D981761F0828DDF0197
:1013A000A80FB11D5D968C91928D9F5F9F73928F58
:1013B00090E008958FEF9FEF089584E89BE0892BDC
:1013C00041F080E090E0892B21F00E94840B811194
:1013D00025C080E090E0892B41F080E090E0892BEF
:1013E00021F00E94000081111CC080E090E0892B58
:1013F00041F080E090E0892B21F00E9400008111F3
:1014000013C080E090E0892BA1F080E090E0892B70
:1014100081F00E94000081110AC008950E9400001E
:10142000D8CF0E940000E1CF0E940000EACF0C94C8
:1014300000000895FC01848DDF01A80FB11DA35A9F
:10144000BF4F2C91848D90E001968F739927848FE4
:10145000A689B7892C93A089B1898C9180648C93DB
:10146000938D848D981306C00288F389E02D8081C6
:101470008F7D80830895CF93DF93EC01888D88233F
:10148000C9F0EA89FB89808185FD05C0A889B989F1
:101490008C9186FD0FC00FB607FCF5CF808185FFCC
:1014A000F2CFA889B9898C9185FFEDCFCE010E943A
:1014B0001A0AE7CFDF91CF910895CF92DF92FF9282
:1014C0000F931F93CF93DF931F92CDB7DEB76C01BD
:1014D000DC015B969C915B975C968C915C97981372
:1014E00007C05096ED91FC915197808185FD32C0E7
:1014F000F601038D10E00F5F1F4F0F731127F02EC1
:10150000F601848DF81211C00FB607FCF9CFD60191
:101510005096ED91FC915197808185FFF1CFC601E6
:1015200069830E941A0A6981EBCF838DE80FF11D50
:10153000E35AFF4F6083D6015B960C935B975296FC
:10154000ED91FC91539780818062808381E0589671
:101550008C930DC0D6015696ED91FC915797608300
:101560005096ED91FC91519780818064808381E059
:1015700090E00F90DF91CF911F910F91FF90DF903E
:10158000CF900895BF92CF92DF92EF92FF92CF93C8
:10159000DF93EC016A017B01B22EE889F98982E0D0
:1015A0008083411581EE580761057105A1F060E067
:1015B00079E08DE390E0A70196010E94530D215040
:1015C00031094109510956954795379527952115B8
:1015D00080E1380798F0E889F989108260E874E8BA
:1015E0008EE190E0A70196010E94530D2150310930
:1015F000410951095695479537952795EC85FD8505
:101600003083EE85FF852083188EEC89FD89B082BA
:10161000EA89FB89808180618083EA89FB898081F6
:1016200088608083EA89FB89808180688083EA8979
:10163000FB8980818F7D8083DF91CF91FF90EF9038
:10164000DF90CF90BF9008951F920F920FB60F9228
:1016500011240BB60F922F938F939F93EF93FF93C9
:10166000E091EC02F091ED028081E091F202F091C4
:10167000F30282FD12C090818091F5028F5F8F731B
:101680002091F602821751F0E091F502F0E0E45269
:10169000FD4F958F8093F50201C08081FF91EF91FE
:1016A0009F918F912F910F900BBE0F900FBE0F90B7
:1016B0001F9018951F920F920FB60F9211240BB620
:1016C0000F922F933F934F935F936F937F938F93DB
:1016D0009F93AF93BF93EF93FF938CED92E00E94A3
:1016E0001A0AFF91EF91BF91AF919F918F917F91D6
:1016F0006F915F914F913F912F910F900BBE0F9083
:101700000FBE0F901F9018958CED92E00E94B009CB
:1017100021E0892B09F420E0822F08951092DF0246
:101720001092DE0288EE93E0A0E0B0E08093E00249
:101730009093E102A093E202B093E30280E192E091
:101740009093DD028093DC0285EC90E09093E902B7
:101750008093E80284EC90E09093EB028093EA029D
:1017600080EC90E09093ED028093EC0281EC90E0AD
:101770009093EF028093EE0282EC90E09093F1025E
:101780008093F00286EC90E09093F3028093F20253
:101790001092F5021092F6021092F7021092F802DF
:1017A000089508950E9440070E94D10B0E94B30142
:1017B000CDEDD9E00E94EC012097E1F30E94DD0914
:1017C000F9CFCF92DF92EF92FF920F931F93CF93B7
:1017D000DF936C017A01EB01E60EF71E00E010E0EA
:1017E000CE15DF0561F06991D601ED91FC91019074
:1017F000F081E02DC6011995080F191FF1CFC8011E
:10180000DF91CF911F910F91FF90EF90DF90CF90DC
:1018100008956115710581F0DB010D900020E9F755
:10182000AD0141505109461B570BDC01ED91FC9174
:101830000280F381E02D199480E090E00895DC01AE
:10184000ED91FC910190F081E02D19940F931F937D
:10185000CF93DF93EC016DE00E941F0C8C016AE0D6
:10186000CE010E941F0C800F911FDF91CF911F911D
:101870000F9108958F929F92AF92BF92CF92DF9275
:10188000EF92FF920F931F93CF93DF93CDB7DEB705
:10189000A1970FB6F894DEBF0FBECDBF7C01C42E5A
:1018A000E52FCB01D22E19A221E02D1510F02AE050
:1018B000D22E8E010F5D1F4F8D2C912CA12CB12C9F
:1018C0006C2D7E2FA50194010E94530D8C2DD29E6C
:1018D00080191124015011098A3014F4805D01C06F
:1018E000895CF8018083211531054105510521F0FE
:1018F000C22EE32FCA01E4CFB801C7010E94090C30
:10190000A1960FB6F894DEBF0FBECDBFDF91CF9189
:101910001F910F91FF90EF90DF90CF90BF90AF900D
:101920009F908F900895CF92DF92EF92FF920F9346
:101930001F93CF93DF93EC016A017B0121153105E1
:1019400079F4E881F9810190F081E02D642FDF9135
:10195000CF911F910F91FF90EF90DF90CF9019944E
:101960002A303105E9F477FF1AC06DE20E941F0C9E
:101970008C0144275527BA014C195D096E097F096E
:101980002AE0CE010E943A0C800F911FDF91CF9187
:101990001F910F91FF90EF90DF90CF9008952AE074
:1019A000B701A601CE01DF91CF911F910F91FF905A
:1019B000EF90DF90CF900C943A0C0F931F93CF933E
:1019C000DF93EC010E94930C8C01CE010E94260C47
:1019D000800F911FDF91CF911F910F9108954F922A
:1019E0005F926F927F92AF92BF92CF92DF92EF920F
:1019F000FF920F931F93CF93DF93CDB7DEB72901EB
:101A00003A01621B730B840B950B2A893B894C8925
:101A10005D892A193B094C095D092A8B3B8B4C8B4C
:101A20005D8B9B01AC016A897B898C899D890E94B1
:101A3000370DE418F50806091709A80197010E9457
:101A4000750D2A0D3B1D4C1D5D1DCA01B901DF91AD
:101A5000CF911F910F91FF90EF90DF90CF90BF90AB
:101A6000AF907F906F905F904F9008950895DB0145
:101A70008F939F930E949A0DBF91AF91A29F800D6B
:101A8000911DA39F900DB29F900D11240895991B55
:101A900079E004C0991F961708F0961B881F7A9565
:101AA000C9F780950895A1E21A2EAA1BBB1BFD0160
:101AB0000DC0AA1FBB1FEE1FFF1FA217B307E4072D
:101AC000F50720F0A21BB30BE40BF50B661F771F85
:101AD000881F991F1A9469F7609570958095909565
:101AE0009B01AC01BD01CF010895052E97FB1EF4AB
:101AF00000940E948C0D57FD07D00E94530D07FCE7
:101B000003D04EF40C948C0D509540953095219552
:101B10003F4F4F4F5F4F0895909580957095619519
:101B20007F4F8F4F9F4F0895EE0FFF1F0590F49149
:101B3000E02D19940E94A90DA59F900DB49F900DC2
:101B4000A49F800D911D112408950790F691E02D1A
:101B50001994A29FB001B39FC001A39F700D811D76
:101B60001124911DB29F700D811D1124911D0895A6
:041B7000F894FFCF17
:101B7400010000005A005A005A005A0000000000F8
:0C1B84005D0AE10BB009C909BB093B0A6E
:00000001FF
